:020000040000fa
:080000000001040000000000f3
:020000040000fa
:0400080004020000ee
:020000040000fa
:04000c0004020000ea
:020000040000fa
:0400100004020000e6
:020000040000fa
:0400140004020000e2
:020000040000fa
:0400180004020000de
:020000040000fa
:04001c0004020000da
:020000040000fa
:0400200004020000d6
:020000040000fa
:0400240004020000d2
:020000040000fa
:0400280004020000ce
:020000040000fa
:04002c0004020000ca
:020000040000fa
:0400300004020000c6
:020000040000fa
:0400340004020000c2
:020000040000fa
:0400380004020000be
:020000040000fa
:04003c0004020000ba
:020000040000fa
:0400400004020000b6
:020000040000fa
:0400440004020000b2
:020000040000fa
:0400480004020000ae
:020000040000fa
:04004c0004020000aa
:020000040000fa
:0400500004020000a6
:020000040000fa
:0400540004020000a2
:020000040000fa
:04005800040200009e
:020000040000fa
:04005c00040200009a
:020000040000fa
:040060000402000096
:020000040000fa
:040064000402000092
:020000040000fa
:04006800040200008e
:020000040000fa
:04006c00040200008a
:020000040000fa
:040070000402000086
:020000040000fa
:040074000402000082
:020000040000fa
:04007800040200007e
:020000040000fa
:04007c00040200007a
:020000040000fa
:040080000402000076
:020000040000fa
:040084000402000072
:020000040000fa
:04008800d0010000a3
:020000040000fa
:04008c00c8010000a7
:020000040000fa
:040090000402000066
:020000040000fa
:040094000402000062
:020000040000fa
:04009800040200005e
:020000040000fa
:04009c00040200005a
:020000040000fa
:0400a0000402000056
:020000040000fa
:0400a4000402000052
:020000040000fa
:0400a800040200004e
:020000040000fa
:0400ac00040200004a
:020000040000fa
:0400b0000402000046
:020000040000fa
:0400b4000402000042
:020000040000fa
:0400b800040200003e
:020000040000fa
:0400bc00040200003a
:020000040000fa
:0400c0000402000036
:020000040000fa
:0400c4000402000032
:020000040000fa
:0400c800040200002e
:020000040000fa
:0400cc00040200002a
:020000040000fa
:0400d0000402000026
:020000040000fa
:0400d4000402000022
:020000040000fa
:0400d800040200001e
:020000040000fa
:0401080004020000ed
:020000040000fa
:04010c0004020000e9
:020000040000fa
:0401100004020000e5
:020000040000fa
:0401140004020000e1
:020000040000fa
:0401180004020000dd
:020000040000fa
:04011c0004020000d9
:020000040000fa
:0401200004020000d5
:020000040000fa
:0401240004020000d1
:020000040000fa
:0401280004020000cd
:020000040000fa
:04012c0004020000c9
:020000040000fa
:0401300004020000c5
:020000040000fa
:0401340004020000c1
:020000040000fa
:0401380004020000bd
:020000040000fa
:04013c0004020000b9
:020000040000fa
:0401400004020000b5
:020000040000fa
:0401440004020000b1
:020000040000fa
:0401480004020000ad
:020000040000fa
:04014c0004020000a9
:020000040000fa
:0401500004020000a5
:020000040000fa
:0401540004020000a1
:020000040000fa
:04015800040200009d
:020000040000fa
:04015c000402000099
:020000040000fa
:040160000402000095
:020000040000fa
:040164000402000091
:020000040000fa
:04016800040200008d
:020000040000fa
:04016c000402000089
:020000040000fa
:040170000402000085
:020000040000fa
:040174000402000081
:020000040000fa
:04017800040200007d
:020000040000fa
:04017c000402000079
:020000040000fa
:040180000402000075
:020000040000fa
:040184000402000071
:020000040000fa
:04018800d0010000a2
:020000040000fa
:04018c00c8010000a6
:020000040000fa
:040190000402000065
:020000040000fa
:040194000402000061
:020000040000fa
:04019800040200005d
:020000040000fa
:04019c000402000059
:020000040000fa
:0401a0000402000055
:020000040000fa
:0401a4000402000051
:020000040000fa
:0401a800040200004d
:020000040000fa
:0401ac000402000049
:020000040000fa
:0401b0000402000045
:020000040000fa
:0401b4000402000041
:020000040000fa
:0401b800040200003d
:020000040000fa
:0401bc000402000039
:020000040000fa
:0401c0000402000035
:020000040000fa
:0401c4000402000031
:020000040000fa
:0401c800040200002d
:020000040000fa
:0401cc000402000029
:020000040000fa
:0401d0000402000025
:020000040000fa
:0401d4000402000021
:020000040000fa
:0401d800040200001d
:020000040000fa
:100200002f8520000e7f22000e01880000000000d4
:10021000000020000000e000020032000001200089
:100220002002880014000700ca0007000000e00058
:1002300003003a00e03120000100200002003700f6
:100240000000200001002000810f7000010032003a
:1002500014000700000020000000e000020032004f
:100260000000020000000000bc02020000000000cc
:100270000040da000000fe004440a9000001200018
:100280000000e0000300320000002000a001880010
:100290004440a800000006008a1f78008b1f7800e9
:1002a0000000060091018800800478000000eb0047
:1002b0001a003700e284440032a0b4009905ba0065
:1002c000e284440032a0b4009906ba00e2844400fb
:1002d00032a0b4000006eb00476fde00fd07b2005d
:1002e000636ce10003003a00ebff07000000eb0045
:1002f0000a003700606ce10004003a00005deb008a
:100300008b05e900fdff3e00040037006168e10055
:10031000010032000086eb000b00070019c7ba008d
:100320001905ba000e04e00003003a000a00e000dc
:10033000e0ff3a0000000600fe07b2009e018800c0
:100340008a047800f5ff3700395dba008b05e900b3
:100350000c003200295dba008b05e900080032006c
:100360000c00e00003003a00e284440032a0b40034
:10037000f5ff370019ddba008b05e900faff3a00f6
:100380008904e800e184440032a0b40000000600c3
:100390000000fa008720a9000080fa000040060053
:1003a0003600f800809fbe00829fbe00849fbe0082
:1003b000869fbe00881f78000000fa008700a90011
:1003c0000600370008408000590007000040780010
:1003d000004c78000800e800004088003900070061
:1003e0000004e000f7ff3a000080fa004f047800b4
:1003f0004f03be004f02be004f01be004f00be00c3
:100400003600f900004006000040da000000fe005f
:10041000001020001802b6000000e9004f00de00c6
:100420000000060017e2a9008f00a9008f20a90094
:100430008700a9008720a900000006008700a90006
:10044000e70060008720a9000001780083ff2f00eb
:100450000207b2000405800084816100838170007e
:10046000e800600003058800c308de00f3f82f00f1
:10047000e18060000405800084816100c808dd001f
:10048000830171000008b20003058800f2ef2f001d
:100490004700de007304800003016100610060001a
:1004a000028170004900dd0072048800f1df2f0036
:1004b00074048000848060008100700071048800f2
:1004c00000000600c01080006140600000000600cf
:1004d000f2108800b0108800c110880000000600eb
:1004e000b1108000e6806000e68f50000c003a00fa
:1004f000030037001922ab00feff3a00d11088003c
:10050000b00078000100e000faff3a0000000600a9
:100510001922ab00feff3a008100fb00d1108800d9
:10052000b04078000104e000f9ff3a000000060046
:10053000b010800066006000e60f500002003a0034
:10054000e010800000000600e0108000f00fb20014
:08055000000006000000050098
:020000040000fa
:100558004d690000637200006f6300006869000065
:100568007020000049430000443200000d0a0000da
:020000040000fa
:100578001600fa00d302a900d702a800e600470037
:10058800c22a28000f000900b2587800a3ff07000c
:10059800e0f22f00a7ff070050002000000f7800ae
:1005a80000f62d0010079800d0792f00200798003a
:1005b8001e017800ae0090001e009000c2ff0700e8
:1005c800d702a90040d42100c10120000b00070078
:1005d800d702a80040d42100c1012000070007006d
:1005e80066004700bcff07000000000086ff070008
:0c05f8000004e000fdff3a00f1ff3700b6
:020000040000fa
:10060400f03fb1000180b10006003500ee0309009f
:1006140000000000403fb1000180b100fbff3d003d
:100624001000b000203fb000020035000080090037
:080634000000000000000600b8
:020000040000fa
:10063c00020800005000000000000000000800004c
:10064c000200000002000000020800000000000090
:020000040000fa
:0200000401f009
:04000000e0b9000063
:020000040000fa
:0200000401f009
:04000400ffff0000fa
:020000040000fa
:0200000401f009
:04000800ffff0000f6
:020000040000fa
:0200000401f009
:04001400ffff0000ea
:020000040000fa
:0200000401f009
:04001800ffff0000e6
:00000001FF
